{
  "_format": "hh-sol-artifact-1",
  "contractName": "SlotAdapter",
  "sourceName": "contracts/contracts/SlotAdapter.sol",
  "abi": [
    {
      "inputs": [],
      "stateMutability": "nonpayable",
      "type": "constructor"
    },
    {
      "inputs": [],
      "name": "OnlyManager",
      "type": "error"
    },
    {
      "inputs": [],
      "name": "OnlyOpenRegistrar",
      "type": "error"
    },
    {
      "inputs": [],
      "name": "OnlyOpsideSlots",
      "type": "error"
    },
    {
      "inputs": [],
      "name": "OnlySlotAdapter",
      "type": "error"
    },
    {
      "inputs": [],
      "name": "OnlyZkEvmContract",
      "type": "error"
    },
    {
      "anonymous": false,
      "inputs": [
        {
          "indexed": true,
          "internalType": "uint256",
          "name": "_slotId",
          "type": "uint256"
        },
        {
          "indexed": true,
          "internalType": "address",
          "name": "_caller",
          "type": "address"
        },
        {
          "indexed": true,
          "internalType": "address",
          "name": "_recipient",
          "type": "address"
        },
        {
          "indexed": false,
          "internalType": "uint256",
          "name": "_amount",
          "type": "uint256"
        }
      ],
      "name": "DistributeRewards",
      "type": "event"
    },
    {
      "anonymous": false,
      "inputs": [
        {
          "indexed": false,
          "internalType": "address",
          "name": "_manager",
          "type": "address"
        },
        {
          "indexed": false,
          "internalType": "address",
          "name": "_opsideSlots",
          "type": "address"
        },
        {
          "indexed": false,
          "internalType": "address",
          "name": "_globalPool",
          "type": "address"
        },
        {
          "indexed": false,
          "internalType": "enum RewardDistributionType",
          "name": "_rewardDistribution",
          "type": "uint8"
        }
      ],
      "name": "Initialize",
      "type": "event"
    },
    {
      "anonymous": false,
      "inputs": [
        {
          "indexed": false,
          "internalType": "uint8",
          "name": "version",
          "type": "uint8"
        }
      ],
      "name": "Initialized",
      "type": "event"
    },
    {
      "anonymous": false,
      "inputs": [
        {
          "indexed": true,
          "internalType": "address",
          "name": "previousOwner",
          "type": "address"
        },
        {
          "indexed": true,
          "internalType": "address",
          "name": "newOwner",
          "type": "address"
        }
      ],
      "name": "OwnershipTransferred",
      "type": "event"
    },
    {
      "anonymous": false,
      "inputs": [
        {
          "indexed": true,
          "internalType": "address",
          "name": "_account",
          "type": "address"
        },
        {
          "indexed": false,
          "internalType": "uint256",
          "name": "_amount",
          "type": "uint256"
        }
      ],
      "name": "PunishAmount",
      "type": "event"
    },
    {
      "anonymous": false,
      "inputs": [
        {
          "indexed": true,
          "internalType": "uint256",
          "name": "_slotId",
          "type": "uint256"
        },
        {
          "indexed": true,
          "internalType": "address",
          "name": "_to",
          "type": "address"
        },
        {
          "indexed": false,
          "internalType": "uint256",
          "name": "_amount",
          "type": "uint256"
        },
        {
          "indexed": false,
          "internalType": "enum RewardType",
          "name": "_rewardType",
          "type": "uint8"
        }
      ],
      "name": "RewardFromGlobalPool",
      "type": "event"
    },
    {
      "anonymous": false,
      "inputs": [
        {
          "indexed": true,
          "internalType": "uint256",
          "name": "_slotId",
          "type": "uint256"
        },
        {
          "indexed": true,
          "internalType": "address",
          "name": "_caller",
          "type": "address"
        },
        {
          "indexed": true,
          "internalType": "address",
          "name": "_recipient",
          "type": "address"
        },
        {
          "indexed": false,
          "internalType": "uint256",
          "name": "_amount",
          "type": "uint256"
        }
      ],
      "name": "Withdrawal",
      "type": "event"
    },
    {
      "inputs": [
        {
          "internalType": "uint64",
          "name": "_batchNum",
          "type": "uint64"
        }
      ],
      "name": "calcSlotRewatd",
      "outputs": [],
      "stateMutability": "nonpayable",
      "type": "function"
    },
    {
      "inputs": [
        {
          "internalType": "address",
          "name": "_manager",
          "type": "address"
        }
      ],
      "name": "changeSlotManager",
      "outputs": [],
      "stateMutability": "nonpayable",
      "type": "function"
    },
    {
      "inputs": [
        {
          "internalType": "address",
          "name": "_recipient",
          "type": "address"
        },
        {
          "internalType": "uint64",
          "name": "_initNumBatch",
          "type": "uint64"
        },
        {
          "internalType": "uint64",
          "name": "_finalNewBatch",
          "type": "uint64"
        },
        {
          "internalType": "contract IDeposit",
          "name": "_iDeposit",
          "type": "address"
        }
      ],
      "name": "distributeRewards",
      "outputs": [],
      "stateMutability": "nonpayable",
      "type": "function"
    },
    {
      "inputs": [],
      "name": "getSlotId",
      "outputs": [
        {
          "internalType": "uint256",
          "name": "",
          "type": "uint256"
        }
      ],
      "stateMutability": "view",
      "type": "function"
    },
    {
      "inputs": [],
      "name": "globalPool",
      "outputs": [
        {
          "internalType": "contract IGlobalPool",
          "name": "",
          "type": "address"
        }
      ],
      "stateMutability": "view",
      "type": "function"
    },
    {
      "inputs": [
        {
          "internalType": "address",
          "name": "",
          "type": "address"
        }
      ],
      "name": "globalReward",
      "outputs": [
        {
          "internalType": "uint256",
          "name": "",
          "type": "uint256"
        }
      ],
      "stateMutability": "view",
      "type": "function"
    },
    {
      "inputs": [
        {
          "internalType": "address",
          "name": "_manager",
          "type": "address"
        },
        {
          "internalType": "address",
          "name": "_opsideSlots",
          "type": "address"
        },
        {
          "internalType": "address",
          "name": "_globalPool",
          "type": "address"
        },
        {
          "internalType": "enum RewardDistributionType",
          "name": "_rewardDistribution",
          "type": "uint8"
        }
      ],
      "name": "initialize",
      "outputs": [],
      "stateMutability": "nonpayable",
      "type": "function"
    },
    {
      "inputs": [],
      "name": "opsideSlots",
      "outputs": [
        {
          "internalType": "contract IOpsideSlots",
          "name": "",
          "type": "address"
        }
      ],
      "stateMutability": "view",
      "type": "function"
    },
    {
      "inputs": [],
      "name": "owner",
      "outputs": [
        {
          "internalType": "address",
          "name": "",
          "type": "address"
        }
      ],
      "stateMutability": "view",
      "type": "function"
    },
    {
      "inputs": [],
      "name": "pause",
      "outputs": [],
      "stateMutability": "nonpayable",
      "type": "function"
    },
    {
      "inputs": [
        {
          "internalType": "uint64",
          "name": "",
          "type": "uint64"
        }
      ],
      "name": "proverReward",
      "outputs": [
        {
          "internalType": "uint256",
          "name": "",
          "type": "uint256"
        }
      ],
      "stateMutability": "view",
      "type": "function"
    },
    {
      "inputs": [
        {
          "internalType": "address",
          "name": "_recipient",
          "type": "address"
        },
        {
          "internalType": "contract IDeposit",
          "name": "_iDeposit",
          "type": "address"
        }
      ],
      "name": "punish",
      "outputs": [],
      "stateMutability": "nonpayable",
      "type": "function"
    },
    {
      "inputs": [],
      "name": "punishAmount",
      "outputs": [
        {
          "internalType": "uint256",
          "name": "",
          "type": "uint256"
        }
      ],
      "stateMutability": "view",
      "type": "function"
    },
    {
      "inputs": [],
      "name": "renounceOwnership",
      "outputs": [],
      "stateMutability": "nonpayable",
      "type": "function"
    },
    {
      "inputs": [],
      "name": "rewardDistribution",
      "outputs": [
        {
          "internalType": "enum RewardDistributionType",
          "name": "",
          "type": "uint8"
        }
      ],
      "stateMutability": "view",
      "type": "function"
    },
    {
      "inputs": [
        {
          "internalType": "address",
          "name": "",
          "type": "address"
        }
      ],
      "name": "rewards",
      "outputs": [
        {
          "internalType": "uint256",
          "name": "",
          "type": "uint256"
        }
      ],
      "stateMutability": "view",
      "type": "function"
    },
    {
      "inputs": [
        {
          "internalType": "uint256",
          "name": "amount",
          "type": "uint256"
        }
      ],
      "name": "setPunishAmount",
      "outputs": [],
      "stateMutability": "nonpayable",
      "type": "function"
    },
    {
      "inputs": [
        {
          "internalType": "enum RewardDistributionType",
          "name": "_rewardDistribution",
          "type": "uint8"
        }
      ],
      "name": "setRewardDistribution",
      "outputs": [],
      "stateMutability": "nonpayable",
      "type": "function"
    },
    {
      "inputs": [
        {
          "internalType": "uint256",
          "name": "_slotId",
          "type": "uint256"
        }
      ],
      "name": "setSlotId",
      "outputs": [],
      "stateMutability": "nonpayable",
      "type": "function"
    },
    {
      "inputs": [
        {
          "internalType": "address",
          "name": "_zkEvmContract",
          "type": "address"
        }
      ],
      "name": "setZKEvmContract",
      "outputs": [],
      "stateMutability": "nonpayable",
      "type": "function"
    },
    {
      "inputs": [],
      "name": "slotId",
      "outputs": [
        {
          "internalType": "uint256",
          "name": "",
          "type": "uint256"
        }
      ],
      "stateMutability": "view",
      "type": "function"
    },
    {
      "inputs": [],
      "name": "slotManager",
      "outputs": [
        {
          "internalType": "address",
          "name": "",
          "type": "address"
        }
      ],
      "stateMutability": "view",
      "type": "function"
    },
    {
      "inputs": [
        {
          "internalType": "address",
          "name": "",
          "type": "address"
        }
      ],
      "name": "slotReward",
      "outputs": [
        {
          "internalType": "uint256",
          "name": "",
          "type": "uint256"
        }
      ],
      "stateMutability": "view",
      "type": "function"
    },
    {
      "inputs": [],
      "name": "start",
      "outputs": [],
      "stateMutability": "nonpayable",
      "type": "function"
    },
    {
      "inputs": [],
      "name": "status",
      "outputs": [
        {
          "internalType": "enum SlotStatus",
          "name": "",
          "type": "uint8"
        }
      ],
      "stateMutability": "view",
      "type": "function"
    },
    {
      "inputs": [],
      "name": "stop",
      "outputs": [],
      "stateMutability": "nonpayable",
      "type": "function"
    },
    {
      "inputs": [
        {
          "internalType": "address",
          "name": "newOwner",
          "type": "address"
        }
      ],
      "name": "transferOwnership",
      "outputs": [],
      "stateMutability": "nonpayable",
      "type": "function"
    },
    {
      "inputs": [],
      "name": "unpause",
      "outputs": [],
      "stateMutability": "nonpayable",
      "type": "function"
    },
    {
      "inputs": [],
      "name": "zkEvmContract",
      "outputs": [
        {
          "internalType": "address",
          "name": "",
          "type": "address"
        }
      ],
      "stateMutability": "view",
      "type": "function"
    }
  ],
  "bytecode": "0x60806040523480156200001157600080fd5b506000606a60146101000a81548160ff021916908360048111156200003b576200003a62000046565b5b021790555062000075565b7f4e487b7100000000000000000000000000000000000000000000000000000000600052602160045260246000fd5b612c4d80620000856000396000f3fe608060405234801561001057600080fd5b50600436106101cf5760003560e01c80637be7984d11610104578063b2427a6c116100a2578063d03bc46a11610071578063d03bc46a14610498578063d729f5c9146104b4578063f2fde38b146104d2578063fec461e6146104ee576101cf565b8063b2427a6c14610424578063bd470dd714610454578063be9a655514610470578063cecc2c6d1461047a576101cf565b80638a14241e116100de5780638a14241e1461039e5780638da5cb5b146103ba5780639dabecda146103d8578063a41a52b6146103f4576101cf565b80637be7984d1461034857806382bdad8f146103785780638456cb5914610394576101cf565b80633f4ba83a116101715780634cd25ab71161014b5780634cd25ab7146102e657806358334e681461030257806365868d6014610320578063715018a61461033e576101cf565b80633f4ba83a146102a25780633fa1b5bc146102ac57806344ddd028146102ca576101cf565b8063175734bb116101ad578063175734bb1461022c578063200d2ed21461024a5780633073cecf146102685780633911578414610284576101cf565b80630700037d146101d457806307da68f514610204578063101114cf1461020e575b600080fd5b6101ee60048036038101906101e99190611fee565b61050a565b6040516101fb9190612034565b60405180910390f35b61020c610522565b005b61021661064b565b60405161022391906120c6565b60405180910390f35b61023461065e565b60405161024191906120f0565b60405180910390f35b610252610684565b60405161025f9190612153565b60405180910390f35b610282600480360381019061027d9190612193565b610697565b005b61028c610a1c565b6040516102999190612259565b60405180910390f35b6102aa610a42565b005b6102b4610c76565b6040516102c19190612034565b60405180910390f35b6102e460048036038101906102df9190611fee565b610c7c565b005b61030060048036038101906102fb9190612274565b610dd8565b005b61030a610f3f565b60405161031791906122c2565b60405180910390f35b610328610f65565b6040516103359190612034565b60405180910390f35b610346610f6f565b005b610362600480360381019061035d919061231d565b610f83565b60405161036f9190612034565b60405180910390f35b610392600480360381019061038d9190612376565b610f9b565b005b61039c61102c565b005b6103b860048036038101906103b39190612376565b611156565b005b6103c26111e7565b6040516103cf91906120f0565b60405180910390f35b6103f260048036038101906103ed91906123e1565b611211565b005b61040e60048036038101906104099190611fee565b61172e565b60405161041b9190612034565b60405180910390f35b61043e60048036038101906104399190611fee565b611746565b60405161044b9190612034565b60405180910390f35b61046e6004803603810190610469919061231d565b61175e565b005b6104786118d6565b005b610482611b0a565b60405161048f9190612034565b60405180910390f35b6104b260048036038101906104ad9190612448565b611b10565b005b6104bc611ca3565b6040516104c991906120f0565b60405180910390f35b6104ec60048036038101906104e79190611fee565b611cc9565b005b61050860048036038101906105039190611fee565b611d4c565b005b606d6020528060005260406000206000915090505481565b3373ffffffffffffffffffffffffffffffffffffffff16606660009054906101000a900473ffffffffffffffffffffffffffffffffffffffff1673ffffffffffffffffffffffffffffffffffffffff16146105a9576040517fc0b2335a00000000000000000000000000000000000000000000000000000000815260040160405180910390fd5b6004808111156105bc576105bb61204f565b5b606a60149054906101000a900460ff1660048111156105de576105dd61204f565b5b0361061e576040517f08c379a0000000000000000000000000000000000000000000000000000000008152600401610615906124e5565b60405180910390fd5b6004606a60146101000a81548160ff021916908360048111156106445761064361204f565b5b0217905550565b606a60159054906101000a900460ff1681565b606760009054906101000a900473ffffffffffffffffffffffffffffffffffffffff1681565b606a60149054906101000a900460ff1681565b60008060019054906101000a900460ff161590508080156106c85750600160008054906101000a900460ff1660ff16105b806106f557506106d730611d98565b1580156106f45750600160008054906101000a900460ff1660ff16145b5b610734576040517f08c379a000000000000000000000000000000000000000000000000000000000815260040161072b90612577565b60405180910390fd5b60016000806101000a81548160ff021916908360ff1602179055508015610771576001600060016101000a81548160ff0219169083151502179055505b600060018111156107855761078461204f565b5b606a60159054906101000a900460ff1660018111156107a7576107a661204f565b5b14806107e557506001808111156107c1576107c061204f565b5b606a60159054906101000a900460ff1660018111156107e3576107e261204f565b5b145b610824576040517f08c379a000000000000000000000000000000000000000000000000000000000815260040161081b906125e3565b60405180910390fd5b84606660006101000a81548173ffffffffffffffffffffffffffffffffffffffff021916908373ffffffffffffffffffffffffffffffffffffffff16021790555083606960006101000a81548173ffffffffffffffffffffffffffffffffffffffff021916908373ffffffffffffffffffffffffffffffffffffffff16021790555082606a60006101000a81548173ffffffffffffffffffffffffffffffffffffffff021916908373ffffffffffffffffffffffffffffffffffffffff1602179055506001606a60146101000a81548160ff0219169083600481111561090d5761090c61204f565b5b0217905550683635c9adc5dea0000060688190555081606a60156101000a81548160ff021916908360018111156109475761094661204f565b5b0217905550610954611dbb565b6002606a60146101000a81548160ff0219169083600481111561097a5761097961204f565b5b02179055507f2df421c7d7b0fc8f784435dd136ba8113c8214288586b4e17c9b3f309ab6c9d9858585856040516109b49493929190612603565b60405180910390a18015610a155760008060016101000a81548160ff0219169083151502179055507f7f26b83ff96e1f2b6a682f133852f6798a09c465da95921460cefb38474024986001604051610a0c9190612690565b60405180910390a15b5050505050565b606a60009054906101000a900473ffffffffffffffffffffffffffffffffffffffff1681565b3373ffffffffffffffffffffffffffffffffffffffff16606660009054906101000a900473ffffffffffffffffffffffffffffffffffffffff1673ffffffffffffffffffffffffffffffffffffffff1614610ac9576040517fc0b2335a00000000000000000000000000000000000000000000000000000000815260040160405180910390fd5b60036004811115610add57610adc61204f565b5b606a60149054906101000a900460ff166004811115610aff57610afe61204f565b5b14610b3f576040517f08c379a0000000000000000000000000000000000000000000000000000000008152600401610b36906124e5565b60405180910390fd5b6000606960009054906101000a900473ffffffffffffffffffffffffffffffffffffffff1673ffffffffffffffffffffffffffffffffffffffff16632798e31b6065546040518263ffffffff1660e01b8152600401610b9e9190612034565b602060405180830381865afa158015610bbb573d6000803e3d6000fd5b505050506040513d601f19601f82011682018060405250810190610bdf91906126d0565b905060026004811115610bf557610bf461204f565b5b816004811115610c0857610c0761204f565b5b14610c48576040517f08c379a0000000000000000000000000000000000000000000000000000000008152600401610c3f906124e5565b60405180910390fd5b6002606a60146101000a81548160ff02191690836004811115610c6e57610c6d61204f565b5b021790555050565b60685481565b3373ffffffffffffffffffffffffffffffffffffffff16606660009054906101000a900473ffffffffffffffffffffffffffffffffffffffff1673ffffffffffffffffffffffffffffffffffffffff1614610d03576040517fc0b2335a00000000000000000000000000000000000000000000000000000000815260040160405180910390fd5b80606660006101000a81548173ffffffffffffffffffffffffffffffffffffffff021916908373ffffffffffffffffffffffffffffffffffffffff160217905550606960009054906101000a900473ffffffffffffffffffffffffffffffffffffffff1673ffffffffffffffffffffffffffffffffffffffff1663a21bd412606554836040518363ffffffff1660e01b8152600401610da39291906126fd565b600060405180830381600087803b158015610dbd57600080fd5b505af1158015610dd1573d6000803e3d6000fd5b5050505050565b3373ffffffffffffffffffffffffffffffffffffffff16606660009054906101000a900473ffffffffffffffffffffffffffffffffffffffff1673ffffffffffffffffffffffffffffffffffffffff1614610e5f576040517fc0b2335a00000000000000000000000000000000000000000000000000000000815260040160405180910390fd5b60006001811115610e7357610e7261204f565b5b606a60159054906101000a900460ff166001811115610e9557610e9461204f565b5b1480610ed35750600180811115610eaf57610eae61204f565b5b606a60159054906101000a900460ff166001811115610ed157610ed061204f565b5b145b610f12576040517f08c379a0000000000000000000000000000000000000000000000000000000008152600401610f09906125e3565b60405180910390fd5b80606a60156101000a81548160ff02191690836001811115610f3757610f3661204f565b5b021790555050565b606960009054906101000a900473ffffffffffffffffffffffffffffffffffffffff1681565b6000606554905090565b610f77611e1c565b610f816000611e9a565b565b606e6020528060005260406000206000915090505481565b3373ffffffffffffffffffffffffffffffffffffffff16606660009054906101000a900473ffffffffffffffffffffffffffffffffffffffff1673ffffffffffffffffffffffffffffffffffffffff1614611022576040517fc0b2335a00000000000000000000000000000000000000000000000000000000815260040160405180910390fd5b8060688190555050565b3373ffffffffffffffffffffffffffffffffffffffff16606660009054906101000a900473ffffffffffffffffffffffffffffffffffffffff1673ffffffffffffffffffffffffffffffffffffffff16146110b3576040517fc0b2335a00000000000000000000000000000000000000000000000000000000815260040160405180910390fd5b600260048111156110c7576110c661204f565b5b606a60149054906101000a900460ff1660048111156110e9576110e861204f565b5b14611129576040517f08c379a0000000000000000000000000000000000000000000000000000000008152600401611120906124e5565b60405180910390fd5b6003606a60146101000a81548160ff0219169083600481111561114f5761114e61204f565b5b0217905550565b3373ffffffffffffffffffffffffffffffffffffffff16606960009054906101000a900473ffffffffffffffffffffffffffffffffffffffff1673ffffffffffffffffffffffffffffffffffffffff16146111dd576040517fc5030cab00000000000000000000000000000000000000000000000000000000815260040160405180910390fd5b8060658190555050565b6000603360009054906101000a900473ffffffffffffffffffffffffffffffffffffffff16905090565b3373ffffffffffffffffffffffffffffffffffffffff16606760009054906101000a900473ffffffffffffffffffffffffffffffffffffffff1673ffffffffffffffffffffffffffffffffffffffff1614611298576040517fedb7e7ea00000000000000000000000000000000000000000000000000000000815260040160405180910390fd5b6112a184611f60565b156112e1576040517f08c379a00000000000000000000000000000000000000000000000000000000081526004016112d890612772565b60405180910390fd5b600260048111156112f5576112f461204f565b5b606960009054906101000a900473ffffffffffffffffffffffffffffffffffffffff1673ffffffffffffffffffffffffffffffffffffffff16632798e31b6065546040518263ffffffff1660e01b81526004016113529190612034565b602060405180830381865afa15801561136f573d6000803e3d6000fd5b505050506040513d601f19601f8201168201806040525081019061139391906126d0565b60048111156113a5576113a461204f565b5b146113e5576040517f08c379a00000000000000000000000000000000000000000000000000000000081526004016113dc906127de565b60405180910390fd5b600260048111156113f9576113f861204f565b5b606a60149054906101000a900460ff16600481111561141b5761141a61204f565b5b1461145b576040517f08c379a00000000000000000000000000000000000000000000000000000000081526004016114529061284a565b60405180910390fd5b6000600181111561146f5761146e61204f565b5b606a60159054906101000a900460ff1660018111156114915761149061204f565b5b146114d1576040517f08c379a00000000000000000000000000000000000000000000000000000000081526004016114c8906128b6565b60405180910390fd5b6000670de0b6b3a76400008273ffffffffffffffffffffffffffffffffffffffff166323e3fbd5876040518263ffffffff1660e01b815260040161151591906120f0565b602060405180830381865afa158015611532573d6000803e3d6000fd5b505050506040513d601f19601f8201168201806040525081019061155691906128eb565b6115609190612976565b90506000670de0b6b3a76400008373ffffffffffffffffffffffffffffffffffffffff16637d8820976040518163ffffffff1660e01b8152600401602060405180830381865afa1580156115b8573d6000803e3d6000fd5b505050506040513d601f19601f820116820180604052508101906115dc91906128eb565b6115e69190612976565b9050600081606e60008767ffffffffffffffff1667ffffffffffffffff168152602001908152602001600020548461161e91906129a7565b6116289190612976565b9050606960009054906101000a900473ffffffffffffffffffffffffffffffffffffffff1673ffffffffffffffffffffffffffffffffffffffff166342d08dde888888856040518563ffffffff1660e01b815260040161168b9493929190612a19565b600060405180830381600087803b1580156116a557600080fd5b505af11580156116b9573d6000803e3d6000fd5b505050508673ffffffffffffffffffffffffffffffffffffffff163073ffffffffffffffffffffffffffffffffffffffff166065547f645eb5d352939be2ce2ee4f5cf1f158d68af7b3493869bee5500d3e6324506658460405161171d9190612034565b60405180910390a450505050505050565b606b6020528060005260406000206000915090505481565b606c6020528060005260406000206000915090505481565b3373ffffffffffffffffffffffffffffffffffffffff16606760009054906101000a900473ffffffffffffffffffffffffffffffffffffffff1673ffffffffffffffffffffffffffffffffffffffff16146117e5576040517fedb7e7ea00000000000000000000000000000000000000000000000000000000815260040160405180910390fd5b6000606e60008367ffffffffffffffff1667ffffffffffffffff16815260200190815260200160002054036118d357606960009054906101000a900473ffffffffffffffffffffffffffffffffffffffff1673ffffffffffffffffffffffffffffffffffffffff1663a1bd30c26040518163ffffffff1660e01b81526004016020604051808303816000875af1158015611883573d6000803e3d6000fd5b505050506040513d601f19601f820116820180604052508101906118a791906128eb565b606e60008367ffffffffffffffff1667ffffffffffffffff168152602001908152602001600020819055505b50565b3373ffffffffffffffffffffffffffffffffffffffff16606660009054906101000a900473ffffffffffffffffffffffffffffffffffffffff1673ffffffffffffffffffffffffffffffffffffffff161461195d576040517fc0b2335a00000000000000000000000000000000000000000000000000000000815260040160405180910390fd5b600160048111156119715761197061204f565b5b606a60149054906101000a900460ff1660048111156119935761199261204f565b5b146119d3576040517f08c379a00000000000000000000000000000000000000000000000000000000081526004016119ca906124e5565b60405180910390fd5b6000606960009054906101000a900473ffffffffffffffffffffffffffffffffffffffff1673ffffffffffffffffffffffffffffffffffffffff16632798e31b6065546040518263ffffffff1660e01b8152600401611a329190612034565b602060405180830381865afa158015611a4f573d6000803e3d6000fd5b505050506040513d601f19601f82011682018060405250810190611a7391906126d0565b905060026004811115611a8957611a8861204f565b5b816004811115611a9c57611a9b61204f565b5b14611adc576040517f08c379a0000000000000000000000000000000000000000000000000000000008152600401611ad3906124e5565b60405180910390fd5b6002606a60146101000a81548160ff02191690836004811115611b0257611b0161204f565b5b021790555050565b60655481565b3373ffffffffffffffffffffffffffffffffffffffff16606760009054906101000a900473ffffffffffffffffffffffffffffffffffffffff1673ffffffffffffffffffffffffffffffffffffffff1614611b97576040517fedb7e7ea00000000000000000000000000000000000000000000000000000000815260040160405180910390fd5b611ba082611f60565b15611be0576040517f08c379a0000000000000000000000000000000000000000000000000000000008152600401611bd790612772565b60405180910390fd5b8073ffffffffffffffffffffffffffffffffffffffff1663d8e423b2836068546040518363ffffffff1660e01b8152600401611c1d929190612a5e565b600060405180830381600087803b158015611c3757600080fd5b505af1158015611c4b573d6000803e3d6000fd5b505050508173ffffffffffffffffffffffffffffffffffffffff167f8acc936fba6991324e04d4a52c1cc3bebcf35b73d8c577110f8433f649eecc5c606854604051611c979190612034565b60405180910390a25050565b606660009054906101000a900473ffffffffffffffffffffffffffffffffffffffff1681565b611cd1611e1c565b600073ffffffffffffffffffffffffffffffffffffffff168173ffffffffffffffffffffffffffffffffffffffff1603611d40576040517f08c379a0000000000000000000000000000000000000000000000000000000008152600401611d3790612af9565b60405180910390fd5b611d4981611e9a565b50565b611d54611e1c565b80606760006101000a81548173ffffffffffffffffffffffffffffffffffffffff021916908373ffffffffffffffffffffffffffffffffffffffff16021790555050565b6000808273ffffffffffffffffffffffffffffffffffffffff163b119050919050565b600060019054906101000a900460ff16611e0a576040517f08c379a0000000000000000000000000000000000000000000000000000000008152600401611e0190612b8b565b60405180910390fd5b611e1a611e15611f83565b611e9a565b565b611e24611f83565b73ffffffffffffffffffffffffffffffffffffffff16611e426111e7565b73ffffffffffffffffffffffffffffffffffffffff1614611e98576040517f08c379a0000000000000000000000000000000000000000000000000000000008152600401611e8f90612bf7565b60405180910390fd5b565b6000603360009054906101000a900473ffffffffffffffffffffffffffffffffffffffff16905081603360006101000a81548173ffffffffffffffffffffffffffffffffffffffff021916908373ffffffffffffffffffffffffffffffffffffffff1602179055508173ffffffffffffffffffffffffffffffffffffffff168173ffffffffffffffffffffffffffffffffffffffff167f8be0079c531659141344cd1fd0a4f28419497f9722a3daafe3b4186f6b6457e060405160405180910390a35050565b6000808273ffffffffffffffffffffffffffffffffffffffff163b119050919050565b600033905090565b600080fd5b600073ffffffffffffffffffffffffffffffffffffffff82169050919050565b6000611fbb82611f90565b9050919050565b611fcb81611fb0565b8114611fd657600080fd5b50565b600081359050611fe881611fc2565b92915050565b60006020828403121561200457612003611f8b565b5b600061201284828501611fd9565b91505092915050565b6000819050919050565b61202e8161201b565b82525050565b60006020820190506120496000830184612025565b92915050565b7f4e487b7100000000000000000000000000000000000000000000000000000000600052602160045260246000fd5b6002811061208f5761208e61204f565b5b50565b60008190506120a08261207e565b919050565b60006120b082612092565b9050919050565b6120c0816120a5565b82525050565b60006020820190506120db60008301846120b7565b92915050565b6120ea81611fb0565b82525050565b600060208201905061210560008301846120e1565b92915050565b6005811061211c5761211b61204f565b5b50565b600081905061212d8261210b565b919050565b600061213d8261211f565b9050919050565b61214d81612132565b82525050565b60006020820190506121686000830184612144565b92915050565b6002811061217b57600080fd5b50565b60008135905061218d8161216e565b92915050565b600080600080608085870312156121ad576121ac611f8b565b5b60006121bb87828801611fd9565b94505060206121cc87828801611fd9565b93505060406121dd87828801611fd9565b92505060606121ee8782880161217e565b91505092959194509250565b6000819050919050565b600061221f61221a61221584611f90565b6121fa565b611f90565b9050919050565b600061223182612204565b9050919050565b600061224382612226565b9050919050565b61225381612238565b82525050565b600060208201905061226e600083018461224a565b92915050565b60006020828403121561228a57612289611f8b565b5b60006122988482850161217e565b91505092915050565b60006122ac82612226565b9050919050565b6122bc816122a1565b82525050565b60006020820190506122d760008301846122b3565b92915050565b600067ffffffffffffffff82169050919050565b6122fa816122dd565b811461230557600080fd5b50565b600081359050612317816122f1565b92915050565b60006020828403121561233357612332611f8b565b5b600061234184828501612308565b91505092915050565b6123538161201b565b811461235e57600080fd5b50565b6000813590506123708161234a565b92915050565b60006020828403121561238c5761238b611f8b565b5b600061239a84828501612361565b91505092915050565b60006123ae82611fb0565b9050919050565b6123be816123a3565b81146123c957600080fd5b50565b6000813590506123db816123b5565b92915050565b600080600080608085870312156123fb576123fa611f8b565b5b600061240987828801611fd9565b945050602061241a87828801612308565b935050604061242b87828801612308565b925050606061243c878288016123cc565b91505092959194509250565b6000806040838503121561245f5761245e611f8b565b5b600061246d85828601611fd9565b925050602061247e858286016123cc565b9150509250929050565b600082825260208201905092915050565b7f496e76616c696420737461747573000000000000000000000000000000000000600082015250565b60006124cf600e83612488565b91506124da82612499565b602082019050919050565b600060208201905081810360008301526124fe816124c2565b9050919050565b7f496e697469616c697a61626c653a20636f6e747261637420697320616c72656160008201527f647920696e697469616c697a6564000000000000000000000000000000000000602082015250565b6000612561602e83612488565b915061256c82612505565b604082019050919050565b6000602082019050818103600083015261259081612554565b9050919050565b7f496e76616c696420526577617264446973747269627574696f6e547970650000600082015250565b60006125cd601e83612488565b91506125d882612597565b602082019050919050565b600060208201905081810360008301526125fc816125c0565b9050919050565b600060808201905061261860008301876120e1565b61262560208301866120e1565b61263260408301856120e1565b61263f60608301846120b7565b95945050505050565b6000819050919050565b600060ff82169050919050565b600061267a61267561267084612648565b6121fa565b612652565b9050919050565b61268a8161265f565b82525050565b60006020820190506126a56000830184612681565b92915050565b600581106126b857600080fd5b50565b6000815190506126ca816126ab565b92915050565b6000602082840312156126e6576126e5611f8b565b5b60006126f4848285016126bb565b91505092915050565b60006040820190506127126000830185612025565b61271f60208301846120e1565b9392505050565b7f4163636f756e74206e6f7420454f410000000000000000000000000000000000600082015250565b600061275c600f83612488565b915061276782612726565b602082019050919050565b6000602082019050818103600083015261278b8161274f565b9050919050565b7f536c6f74206d7573742062652072756e6e696e67000000000000000000000000600082015250565b60006127c8601483612488565b91506127d382612792565b602082019050919050565b600060208201905081810360008301526127f7816127bb565b9050919050565b7f5a6b45766d206d7573742062652072756e6e696e670000000000000000000000600082015250565b6000612834601583612488565b915061283f826127fe565b602082019050919050565b6000602082019050818103600083015261286381612827565b9050919050565b7f4e6f74204175746f6d6174696300000000000000000000000000000000000000600082015250565b60006128a0600d83612488565b91506128ab8261286a565b602082019050919050565b600060208201905081810360008301526128cf81612893565b9050919050565b6000815190506128e58161234a565b92915050565b60006020828403121561290157612900611f8b565b5b600061290f848285016128d6565b91505092915050565b7f4e487b7100000000000000000000000000000000000000000000000000000000600052601260045260246000fd5b7f4e487b7100000000000000000000000000000000000000000000000000000000600052601160045260246000fd5b60006129818261201b565b915061298c8361201b565b92508261299c5761299b612918565b5b828204905092915050565b60006129b28261201b565b91506129bd8361201b565b92508282026129cb8161201b565b915082820484148315176129e2576129e1612947565b5b5092915050565b60006129f482611f90565b9050919050565b612a04816129e9565b82525050565b612a13816122dd565b82525050565b6000608082019050612a2e60008301876129fb565b612a3b6020830186612a0a565b612a486040830185612a0a565b612a556060830184612025565b95945050505050565b6000604082019050612a7360008301856120e1565b612a806020830184612025565b9392505050565b7f4f776e61626c653a206e6577206f776e657220697320746865207a65726f206160008201527f6464726573730000000000000000000000000000000000000000000000000000602082015250565b6000612ae3602683612488565b9150612aee82612a87565b604082019050919050565b60006020820190508181036000830152612b1281612ad6565b9050919050565b7f496e697469616c697a61626c653a20636f6e7472616374206973206e6f74206960008201527f6e697469616c697a696e67000000000000000000000000000000000000000000602082015250565b6000612b75602b83612488565b9150612b8082612b19565b604082019050919050565b60006020820190508181036000830152612ba481612b68565b9050919050565b7f4f776e61626c653a2063616c6c6572206973206e6f7420746865206f776e6572600082015250565b6000612be1602083612488565b9150612bec82612bab565b602082019050919050565b60006020820190508181036000830152612c1081612bd4565b905091905056fea264697066735822122084d0248022daa68f0cad8231984e35564df723b80134cd899525c5c0976b715164736f6c63430008120033",
  "linkReferences": {},
  "deployedLinkReferences": {}
}